{
    "abi": [
        {
            "type": "constructor",
            "inputs": [
                {
                    "name": "params",
                    "type": "tuple",
                    "internalType": "struct IBorrowStable.InitailConsParams",
                    "components": [
                        {
                            "name": "StableCoin",
                            "type": "address",
                            "internalType": "address"
                        },
                        {
                            "name": "collateralAsset",
                            "type": "address",
                            "internalType": "address"
                        },
                        {
                            "name": "collatToFiatOracle",
                            "type": "address",
                            "internalType": "address"
                        },
                        {
                            "name": "owner",
                            "type": "address",
                            "internalType": "address"
                        },
                        {
                            "name": "router",
                            "type": "address",
                            "internalType": "address"
                        },
                        {
                            "name": "minBorrowAmount",
                            "type": "uint256",
                            "internalType": "uint256"
                        },
                        {
                            "name": "minCollatAmount",
                            "type": "uint256",
                            "internalType": "uint256"
                        },
                        {
                            "name": "safeLtvBp",
                            "type": "uint16",
                            "internalType": "uint16"
                        },
                        {
                            "name": "liquidationLtvBp",
                            "type": "uint16",
                            "internalType": "uint16"
                        },
                        {
                            "name": "liquidationPenaltyBp",
                            "type": "uint16",
                            "internalType": "uint16"
                        },
                        {
                            "name": "borrowRatePerYearBp",
                            "type": "uint16",
                            "internalType": "uint16"
                        },
                        {
                            "name": "collatTofiatConversion",
                            "type": "uint256",
                            "internalType": "uint256"
                        }
                    ]
                }
            ],
            "stateMutability": "nonpayable"
        },
        {
            "type": "function",
            "name": "Router",
            "inputs": [],
            "outputs": [
                {
                    "name": "",
                    "type": "address",
                    "internalType": "address"
                }
            ],
            "stateMutability": "view"
        },
        {
            "type": "function",
            "name": "StableCoin",
            "inputs": [],
            "outputs": [
                {
                    "name": "",
                    "type": "address",
                    "internalType": "contract IStablecoin"
                }
            ],
            "stateMutability": "view"
        },
        {
            "type": "function",
            "name": "accureInterest",
            "inputs": [],
            "outputs": [],
            "stateMutability": "nonpayable"
        },
        {
            "type": "function",
            "name": "aggregateState",
            "inputs": [],
            "outputs": [
                {
                    "name": "totalCollateral",
                    "type": "uint256",
                    "internalType": "uint256"
                },
                {
                    "name": "totalDebt",
                    "type": "uint256",
                    "internalType": "uint256"
                },
                {
                    "name": "totalShares",
                    "type": "uint256",
                    "internalType": "uint256"
                }
            ],
            "stateMutability": "view"
        },
        {
            "type": "function",
            "name": "borrowFiat",
            "inputs": [
                {
                    "name": "borrower",
                    "type": "address",
                    "internalType": "address"
                },
                {
                    "name": "stablecoinAmount",
                    "type": "uint256",
                    "internalType": "uint256"
                }
            ],
            "outputs": [],
            "stateMutability": "nonpayable"
        },
        {
            "type": "function",
            "name": "borrowRatePerSecond",
            "inputs": [],
            "outputs": [
                {
                    "name": "",
                    "type": "uint256",
                    "internalType": "uint256"
                }
            ],
            "stateMutability": "view"
        },
        {
            "type": "function",
            "name": "collateralAsset",
            "inputs": [],
            "outputs": [
                {
                    "name": "",
                    "type": "address",
                    "internalType": "address"
                }
            ],
            "stateMutability": "view"
        },
        {
            "type": "function",
            "name": "collateralConfig",
            "inputs": [],
            "outputs": [
                {
                    "name": "collatToFiatOracle",
                    "type": "address",
                    "internalType": "contract IHybridFiatPriceFeed"
                },
                {
                    "name": "minCollatAmount",
                    "type": "uint256",
                    "internalType": "uint256"
                },
                {
                    "name": "minBorrowAmount",
                    "type": "uint256",
                    "internalType": "uint256"
                },
                {
                    "name": "collatTofiatConversionConstant",
                    "type": "uint256",
                    "internalType": "uint256"
                }
            ],
            "stateMutability": "view"
        },
        {
            "type": "function",
            "name": "depositCollateral",
            "inputs": [
                {
                    "name": "receiver",
                    "type": "address",
                    "internalType": "address"
                },
                {
                    "name": "amount",
                    "type": "uint256",
                    "internalType": "uint256"
                }
            ],
            "outputs": [],
            "stateMutability": "nonpayable"
        },
        {
            "type": "function",
            "name": "lastAccrual",
            "inputs": [],
            "outputs": [
                {
                    "name": "",
                    "type": "uint256",
                    "internalType": "uint256"
                }
            ],
            "stateMutability": "view"
        },
        {
            "type": "function",
            "name": "liquidate",
            "inputs": [
                {
                    "name": "liquidator",
                    "type": "address",
                    "internalType": "address"
                },
                {
                    "name": "account",
                    "type": "address",
                    "internalType": "address"
                }
            ],
            "outputs": [],
            "stateMutability": "nonpayable"
        },
        {
            "type": "function",
            "name": "ltvConfig",
            "inputs": [],
            "outputs": [
                {
                    "name": "safeLtvBp",
                    "type": "uint16",
                    "internalType": "uint16"
                },
                {
                    "name": "liquidationLtvBp",
                    "type": "uint16",
                    "internalType": "uint16"
                },
                {
                    "name": "liquidationPenaltyBp",
                    "type": "uint16",
                    "internalType": "uint16"
                }
            ],
            "stateMutability": "view"
        },
        {
            "type": "function",
            "name": "owner",
            "inputs": [],
            "outputs": [
                {
                    "name": "",
                    "type": "address",
                    "internalType": "address"
                }
            ],
            "stateMutability": "view"
        },
        {
            "type": "function",
            "name": "pause",
            "inputs": [],
            "outputs": [],
            "stateMutability": "nonpayable"
        },
        {
            "type": "function",
            "name": "paused",
            "inputs": [],
            "outputs": [
                {
                    "name": "",
                    "type": "bool",
                    "internalType": "bool"
                }
            ],
            "stateMutability": "view"
        },
        {
            "type": "function",
            "name": "renounceOwnership",
            "inputs": [],
            "outputs": [],
            "stateMutability": "nonpayable"
        },
        {
            "type": "function",
            "name": "repayFiat",
            "inputs": [
                {
                    "name": "supplier",
                    "type": "address",
                    "internalType": "address"
                },
                {
                    "name": "account",
                    "type": "address",
                    "internalType": "address"
                },
                {
                    "name": "stablecoinAmount",
                    "type": "uint256",
                    "internalType": "uint256"
                }
            ],
            "outputs": [],
            "stateMutability": "nonpayable"
        },
        {
            "type": "function",
            "name": "transferOwnership",
            "inputs": [
                {
                    "name": "newOwner",
                    "type": "address",
                    "internalType": "address"
                }
            ],
            "outputs": [],
            "stateMutability": "nonpayable"
        },
        {
            "type": "function",
            "name": "unpause",
            "inputs": [],
            "outputs": [],
            "stateMutability": "nonpayable"
        },
        {
            "type": "function",
            "name": "withdrawCollateral",
            "inputs": [
                {
                    "name": "supplier",
                    "type": "address",
                    "internalType": "address"
                },
                {
                    "name": "amount",
                    "type": "uint256",
                    "internalType": "uint256"
                }
            ],
            "outputs": [],
            "stateMutability": "nonpayable"
        },
        {
            "type": "event",
            "name": "Borrow",
            "inputs": [
                {
                    "name": "borrower",
                    "type": "address",
                    "indexed": true,
                    "internalType": "address"
                },
                {
                    "name": "stablecoin",
                    "type": "uint256",
                    "indexed": true,
                    "internalType": "uint256"
                }
            ],
            "anonymous": false
        },
        {
            "type": "event",
            "name": "Deposit",
            "inputs": [
                {
                    "name": "sender",
                    "type": "address",
                    "indexed": true,
                    "internalType": "address"
                },
                {
                    "name": "receiver",
                    "type": "address",
                    "indexed": true,
                    "internalType": "address"
                },
                {
                    "name": "amount",
                    "type": "uint256",
                    "indexed": false,
                    "internalType": "uint256"
                }
            ],
            "anonymous": false
        },
        {
            "type": "event",
            "name": "Liquidate",
            "inputs": [
                {
                    "name": "liquidator",
                    "type": "address",
                    "indexed": true,
                    "internalType": "address"
                },
                {
                    "name": "account",
                    "type": "address",
                    "indexed": true,
                    "internalType": "address"
                },
                {
                    "name": "debtRepaid",
                    "type": "uint256",
                    "indexed": false,
                    "internalType": "uint256"
                },
                {
                    "name": "collateralSeized",
                    "type": "uint256",
                    "indexed": false,
                    "internalType": "uint256"
                }
            ],
            "anonymous": false
        },
        {
            "type": "event",
            "name": "OwnershipTransferred",
            "inputs": [
                {
                    "name": "previousOwner",
                    "type": "address",
                    "indexed": true,
                    "internalType": "address"
                },
                {
                    "name": "newOwner",
                    "type": "address",
                    "indexed": true,
                    "internalType": "address"
                }
            ],
            "anonymous": false
        },
        {
            "type": "event",
            "name": "Paused",
            "inputs": [
                {
                    "name": "account",
                    "type": "address",
                    "indexed": false,
                    "internalType": "address"
                }
            ],
            "anonymous": false
        },
        {
            "type": "event",
            "name": "Repay",
            "inputs": [
                {
                    "name": "payer",
                    "type": "address",
                    "indexed": true,
                    "internalType": "address"
                },
                {
                    "name": "account",
                    "type": "address",
                    "indexed": true,
                    "internalType": "address"
                },
                {
                    "name": "repaidDebt",
                    "type": "uint256",
                    "indexed": false,
                    "internalType": "uint256"
                },
                {
                    "name": "remainingDebt",
                    "type": "uint256",
                    "indexed": false,
                    "internalType": "uint256"
                }
            ],
            "anonymous": false
        },
        {
            "type": "event",
            "name": "Unpaused",
            "inputs": [
                {
                    "name": "account",
                    "type": "address",
                    "indexed": false,
                    "internalType": "address"
                }
            ],
            "anonymous": false
        },
        {
            "type": "event",
            "name": "Withdraw",
            "inputs": [
                {
                    "name": "sender",
                    "type": "address",
                    "indexed": true,
                    "internalType": "address"
                },
                {
                    "name": "amount",
                    "type": "uint256",
                    "indexed": false,
                    "internalType": "uint256"
                }
            ],
            "anonymous": false
        },
        {
            "type": "error",
            "name": "AddressEmptyCode",
            "inputs": [
                {
                    "name": "target",
                    "type": "address",
                    "internalType": "address"
                }
            ]
        },
        {
            "type": "error",
            "name": "AddressInsufficientBalance",
            "inputs": [
                {
                    "name": "account",
                    "type": "address",
                    "internalType": "address"
                }
            ]
        },
        {
            "type": "error",
            "name": "EnforcedPause",
            "inputs": []
        },
        {
            "type": "error",
            "name": "ExpectedPause",
            "inputs": []
        },
        {
            "type": "error",
            "name": "FailedInnerCall",
            "inputs": []
        },
        {
            "type": "error",
            "name": "LessThanMinCollateralRemaining",
            "inputs": []
        },
        {
            "type": "error",
            "name": "MathOverflowedMulDiv",
            "inputs": []
        },
        {
            "type": "error",
            "name": "OwnableInvalidOwner",
            "inputs": [
                {
                    "name": "owner",
                    "type": "address",
                    "internalType": "address"
                }
            ]
        },
        {
            "type": "error",
            "name": "OwnableUnauthorizedAccount",
            "inputs": [
                {
                    "name": "account",
                    "type": "address",
                    "internalType": "address"
                }
            ]
        },
        {
            "type": "error",
            "name": "SafeERC20FailedOperation",
            "inputs": [
                {
                    "name": "token",
                    "type": "address",
                    "internalType": "address"
                }
            ]
        }
    ],
    "bytecode": {
        "object": "0x60e060405234801562000010575f80fd5b506040516200276338038062002763833981016040819052620000339162000609565b60608101516001600160a01b0381166200006757604051631e4fbdf760e01b81525f60048201526024015b60405180910390fd5b620000728162000287565b505f805460ff60a01b1916905560a0810151612710118015906200009c57506127108160c0015110155b620000ea5760405162461bcd60e51b815260206004820152601360248201527f4c6573735468616e4d696e4f70416d6f756e740000000000000000000000000060448201526064016200005e565b6200010b8160e00151826101000151836101200151620002d660201b60201c565b6105dc61ffff1681610140015161ffff161115620001605760405162461bcd60e51b8152602060048201526011602482015270084dee4e4deeea4c2e8caa8dede90d2ced607b1b60448201526064016200005e565b80516001600160a01b039081166080908152602080840151831660a090815282850151841660c0908152604080516060808201835260e089015161ffff9081168084526101008b015182168489018190526101208c01519092169385018490526001805463ffffffff1916909117620100009092029190911761ffff60201b1916640100000000909302929092179091558151958601825281880151909616808652918701519385018490529186015191840182905261016086015193909401839052600280546001600160a01b03191690941790935560035560049190915560055562000279655af3107a40006200025f6201518061016d62000709565b61014084015161ffff16919063ffffffff16600162000454565b600b555042600a55620007cb565b5f80546001600160a01b038381166001600160a01b0319831681178455604051919092169283917f8be0079c531659141344cd1fd0a4f28419497f9722a3daafe3b4186f6b6457e09190a35050565b610fa061ffff841610801590620002f35750611b5861ffff841611155b620003415760405162461bcd60e51b815260206004820152601360248201527f536166654c747642704f75744f6652616e67650000000000000000000000000060448201526064016200005e565b620003516103e861271062000734565b61ffff168261ffff161115620003aa5760405162461bcd60e51b815260206004820152601860248201527f4c69717569646174696f6e4c74764270546f6f4c61726765000000000000000060448201526064016200005e565b6103e861ffff82161115620004025760405162461bcd60e51b815260206004820152601c60248201527f4c69717569646174696f6e50656e616c74794270546f6f4c617267650000000060448201526064016200005e565b8161ffff168361ffff16106200044f5760405162461bcd60e51b8152602060048201526011602482015270536166654c74764270546f6f4c6172676560781b60448201526064016200005e565b505050565b5f8062000463868686620004ae565b9050620004708362000574565b80156200048f57505f84806200048a576200048a62000759565b868809115b15620004a557620004a26001826200076d565b90505b95945050505050565b5f838302815f1985870982811083820303915050805f03620004e757838281620004dc57620004dc62000759565b04925050506200056d565b808411620005085760405163227bc15360e01b815260040160405180910390fd5b5f848688095f868103871696879004966002600389028118808a02820302808a02820302808a02820302808a02820302808a02820302808a02909103029181900381900460010186841190950394909402919094039290920491909117919091029150505b9392505050565b5f60028260038111156200058c576200058c62000789565b6200059891906200079d565b60ff166001149050919050565b60405161018081016001600160401b0381118282101715620005d557634e487b7160e01b5f52604160045260245ffd5b60405290565b80516001600160a01b0381168114620005f2575f80fd5b919050565b805161ffff81168114620005f2575f80fd5b5f61018082840312156200061b575f80fd5b62000625620005a5565b6200063083620005db565b81526200064060208401620005db565b60208201526200065360408401620005db565b60408201526200066660608401620005db565b60608201526200067960808401620005db565b608082015260a083015160a082015260c083015160c0820152620006a060e08401620005f7565b60e0820152610100620006b5818501620005f7565b90820152610120620006c9848201620005f7565b90820152610140620006dd848201620005f7565b90820152610160928301519281019290925250919050565b634e487b7160e01b5f52601160045260245ffd5b63ffffffff8181168382160280821691908281146200072c576200072c620006f5565b505092915050565b61ffff828116828216039080821115620007525762000752620006f5565b5092915050565b634e487b7160e01b5f52601260045260245ffd5b80820180821115620007835762000783620006f5565b92915050565b634e487b7160e01b5f52602160045260245ffd5b5f60ff831680620007bc57634e487b7160e01b5f52601260045260245ffd5b8060ff84160691505092915050565b60805160a05160c051611f196200084a5f395f818161033601528181610363015281816103dc015281816104df015261058601525f81816102fc0152818161098701528181610f5d015261126201525f818161025e015281816106c60152818161072701528181610be801528181610c9501526111260152611f195ff3fe608060405234801561000f575f80fd5b5060043610610127575f3560e01c806386b9d81f116100a9578063a5d5db0c1161006e578063a5d5db0c1461029b578063a7b11070146102ae578063aabaecd6146102f7578063f2fde38b1461031e578063f6d7eade14610331575f80fd5b806386b9d81f146102225780638da5cb5b14610235578063a291985d14610259578063a373ed4e14610280578063a5c2630814610288575f80fd5b80635c0ab4de116100ef5780635c0ab4de146101a45780635c975abb146101ed578063715018a6146102095780637b3baab4146102115780638456cb591461021a575f80fd5b80630e3609511461012b578063350c35e91461015d5780633f4ba83a14610172578063526097501461017a578063575963f114610191575b5f80fd5b60065460075460085461013d92919083565b604080519384526020840192909252908201526060015b60405180910390f35b61017061016b366004611c5d565b610358565b005b6101706103bf565b610183600b5481565b604051908152602001610154565b61017061019f366004611c85565b6103d1565b6002546003546004546005546101c3936001600160a01b031692919084565b604080516001600160a01b0390951685526020850193909352918301526060820152608001610154565b5f54600160a01b900460ff166040519015158152602001610154565b6101706104b3565b610183600a5481565b6101706104c4565b610170610230366004611cbe565b6104d4565b5f546001600160a01b03165b6040516001600160a01b039091168152602001610154565b6102417f000000000000000000000000000000000000000000000000000000000000000081565b610170610573565b610170610296366004611c5d565b61057b565b6101706102a9366004611c5d565b6105d5565b6001546102d29061ffff808216916201000081048216916401000000009091041683565b6040805161ffff94851681529284166020840152921691810191909152606001610154565b6102417f000000000000000000000000000000000000000000000000000000000000000081565b61017061032c366004611cef565b6105e8565b6102417f000000000000000000000000000000000000000000000000000000000000000081565b336001600160a01b037f000000000000000000000000000000000000000000000000000000000000000016146103a95760405162461bcd60e51b81526004016103a090611d08565b60405180910390fd5b6103b1610625565b6103bb8282610812565b5050565b6103c76109f7565b6103cf610a23565b565b336001600160a01b037f000000000000000000000000000000000000000000000000000000000000000016146104195760405162461bcd60e51b81526004016103a090611d08565b5f81116104565760405162461bcd60e51b815260206004820152600b60248201526a1e995c9bc8105b5bdd5b9d60aa1b60448201526064016103a0565b6001600160a01b03821661049b5760405162461bcd60e51b815260206004820152600c60248201526b7a65726f206164647265737360a01b60448201526064016103a0565b6104a3610625565b6104ae838383610a77565b505050565b6104bb6109f7565b6103cf5f610d52565b6104cc6109f7565b6103cf610da1565b336001600160a01b037f0000000000000000000000000000000000000000000000000000000000000000161461051c5760405162461bcd60e51b81526004016103a090611d08565b6001600160a01b0381166105615760405162461bcd60e51b815260206004820152600c60248201526b7a65726f206164647265737360a01b60448201526064016103a0565b610569610625565b6103bb8282610de3565b6103cf610625565b336001600160a01b037f000000000000000000000000000000000000000000000000000000000000000016146105c35760405162461bcd60e51b81526004016103a090611d08565b6105cb610625565b6103bb8282610fe3565b6105dd610625565b6103bb3383836111b8565b6105f06109f7565b6001600160a01b03811661061957604051631e4fbdf760e01b81525f60048201526024016103a0565b61062281610d52565b50565b5f600a54426106349190611d43565b600754909150600182106103bb57801561080a575f61066b82670de0b6b3a764000085600b546106649190611d56565b91906112dd565b90508015610808575f610683826109c46127106112dd565b90505f610695836109c46127106112dd565b90505f6106a28284611d6d565b905080156107eb576040516340c10f1960e01b8152306004820152602481018290527f00000000000000000000000000000000000000000000000000000000000000006001600160a01b0316906340c10f19906044015f604051808303815f87803b15801561070f575f80fd5b505af1158015610721573d5f803e3d5ffd5b505050507f00000000000000000000000000000000000000000000000000000000000000006001600160a01b031663a9059cbb6107655f546001600160a01b031690565b6040516001600160e01b031960e084901b1681526001600160a01b039091166004820152602481018690526044016020604051808303815f875af11580156107af573d5f803e3d5ffd5b505050506040513d601f19601f820116820180604052508101906107d39190611d80565b508160095f8282546107e59190611d6d565b90915550505b8360066001015f8282546107ff9190611d6d565b90915550505050505b505b42600a555050565b61081a61139d565b5f81116108575760405162461bcd60e51b815260206004820152600b60248201526a1e995c9bc8185b5bdd5b9d60aa1b60448201526064016103a0565b6001600160a01b0382165f908152600e602090815260409182902082518084019093528054835260018101549183019190915290610894906113c7565b8211156108e35760405162461bcd60e51b815260206004820152601c60248201527f4e6f74456e6f756768417661696c61626c65436f6c6c61746572616c0000000060448201526064016103a0565b5f8282600101546108f49190611d43565b90505f81118015610906575060035481105b156109595760408051808201909152825481526001830154602082015261092c90611433565b5f036109405750600181015491505f610959565b604051637cacb58560e01b815260040160405180910390fd5b60018201819055600680548491905f90610974908490611d43565b909155506109ae90506001600160a01b037f0000000000000000000000000000000000000000000000000000000000000000168585611472565b836001600160a01b03167f884edad9ce6fa2440d8a54cc123490eb96d2768479d49ff9c7366125a9424364846040516109e991815260200190565b60405180910390a250505050565b5f546001600160a01b031633146103cf5760405163118cdaa760e01b81523360048201526024016103a0565b610a2b6114d1565b5f805460ff60a01b191690557f5db9ee0a495bf2e6ff9c91a7834c1ba4fdd244a5e8aa4e537bd38aeae4b073aa335b6040516001600160a01b03909116815260200160405180910390a1565b610a7f61139d565b6001600160a01b0382165f908152600e60209081526040808320815180830190925280548252600181015492820192909252909190610abd90611433565b90505f8111610afa5760405162461bcd60e51b81526020600482015260096024820152681e995c9bc81919589d60ba1b60448201526064016103a0565b825f808060018401610b0a578493505b83851115610b80575f610b1d8587611d43565b90506127108111158015610b3357508060095410155b15610b6b5786548694509250610b4a600c8a6114fa565b508060095f828254610b5c9190611d43565b92505081905550809150610b7a565b849350610b778561150e565b92505b50610b94565b85548593509150610b92600c896114fa565b505b8260066001015f828254610ba89190611d43565b9091555050600880548391905f90610bc1908490611d43565b90915550508554829087905f90610bd9908490611d43565b90915550506001600160a01b037f000000000000000000000000000000000000000000000000000000000000000016639dc29fac8a610c188487611d43565b6040516001600160e01b031960e085901b1681526001600160a01b03909216600483015260248201526044015f604051808303815f87803b158015610c5b575f80fd5b505af1158015610c6d573d5f803e3d5ffd5b505050505f811115610cf557604051632770a7eb60e21b8152306004820152602481018290527f00000000000000000000000000000000000000000000000000000000000000006001600160a01b031690639dc29fac906044015f604051808303815f87803b158015610cde575f80fd5b505af1158015610cf0573d5f803e3d5ffd5b505050505b6001600160a01b03808916908a167fe4a1ae657f49cb1fb1c7d3a94ae6093565c4c8c0e03de488f79c377c3c3a24e085610d2f818a611d43565b6040805192835260208301919091520160405180910390a3505050505050505050565b5f80546001600160a01b038381166001600160a01b0319831681178455604051919092169283917f8be0079c531659141344cd1fd0a4f28419497f9722a3daafe3b4186f6b6457e09190a35050565b610da961139d565b5f805460ff60a01b1916600160a01b1790557f62e78cea01bee320cd4e420270b5ea74000d11b0c9f74754ebdbfc544b05a258610a5a3390565b610deb61139d565b6001600160a01b0381165f908152600e60209081526040808320815180830190925280548252600181015492820192909252909190610e2990611433565b6040805180820190915283548152600184015460208201529091505f90610e4f90611519565b604080518082019091528454815260018501546020820152909150610e74908361153b565b610eb55760405162461bcd60e51b81526020600482015260126024820152712232b13a34b9aab73232b929b0b332a62a2b60711b60448201526064016103a0565b5f80610ec68484876001015461154e565b915091505f82118015610ed857505f81115b610f135760405162461bcd60e51b815260206004820152600c60248201526b7a65726f20616d6f756e747360a01b60448201526064016103a0565b610f1e878784610a77565b80856001015f828254610f319190611d43565b9091555050600680548291905f90610f4a908490611d43565b90915550610f8490506001600160a01b037f0000000000000000000000000000000000000000000000000000000000000000168883611472565b856001600160a01b0316876001600160a01b03167ff3fa0eaee8f258c23b013654df25d1527f98a5c7ccd5e951dd77caca400ef9728484604051610fd2929190918252602082015260400190565b60405180910390a350505050505050565b610feb61139d565b6004548110156110315760405162461bcd60e51b81526020600482015260116024820152704c6573735468616e4d696e426f72726f7760781b60448201526064016103a0565b6001600160a01b0382165f908152600e6020526040902061105281836115b2565b61109e5760405162461bcd60e51b815260206004820152601b60248201527f4e6f74456e6f756768436f6c6c61746572616c546f426f72726f77000000000060448201526064016103a0565b5f6110a88361150e565b905080825f015f8282546110bc9190611d6d565b9091555050600880548291905f906110d5908490611d6d565b9091555050600780548491905f906110ee908490611d6d565b909155506110ff9050600c85611641565b506040516340c10f1960e01b81526001600160a01b038581166004830152602482018590527f000000000000000000000000000000000000000000000000000000000000000016906340c10f19906044015f604051808303815f87803b158015611167575f80fd5b505af1158015611179573d5f803e3d5ffd5b50506040518592506001600160a01b03871691507fcbc04eca7e9da35cb1393a6135a199ca52e450d5e9251cbd99f7847d33a36750905f90a350505050565b6111c061139d565b60035481101561120a5760405162461bcd60e51b81526020600482015260156024820152741b195cdcd51a185b935a5b90dbdb1b185d195c985b605a1b60448201526064016103a0565b6001600160a01b0382165f908152600e6020526040812060018101805491928492611236908490611d6d565b9091555050600680548391905f9061124f908490611d6d565b9091555061128a90506001600160a01b037f000000000000000000000000000000000000000000000000000000000000000016853085611655565b826001600160a01b0316846001600160a01b03167f5548c837ab068cf56a2c2479df0882a4922fd203edb7517321831d95078c5f62846040516112cf91815260200190565b60405180910390a350505050565b5f838302815f1985870982811083820303915050805f036113115783828161130757611307611d9f565b0492505050611396565b8084116113315760405163227bc15360e01b815260040160405180910390fd5b5f848688095f868103871696879004966002600389028118808a02820302808a02820302808a02820302808a02820302808a02820302808a02909103029181900381900460010186841190950394909402919094039290920491909117919091029150505b9392505050565b5f54600160a01b900460ff16156103cf5760405163d93c066560e01b815260040160405180910390fd5b5f806113d283611433565b9050805f036113e45750506020015190565b5f6113ee84611519565b905080821061140057505f9392505050565b60015461142b90611426906127109061ffff165f61141e8787611d43565b929190611694565b6116e3565b949350505050565b5f6001611440600c6116fe565b111561145757815161145190611707565b92915050565b81511561146657505060075490565b505f919050565b919050565b6040516001600160a01b038381166024830152604482018390526104ae91859182169063a9059cbb906064015b604051602081830303815290604052915060e01b6020820180516001600160e01b038381831617835250505050611713565b5f54600160a01b900460ff166103cf57604051638dfc202b60e01b815260040160405180910390fd5b5f611396836001600160a01b038416611774565b5f611451825f61185e565b60015460208201515f916114519161ffff909116906127109061066490611889565b5f611545836118a1565b90911192915050565b5f805f61155b86856118c8565b60015490915062010000900461ffff1681106115a257612710811015611597576115858686611921565b925061159083611955565b91506115a9565b8592508391506115a9565b5f92505f91505b50935093915050565b6040805180820190915282548152600183015460208201525f9081906115d790611519565b6040805180820190915285548152600186015460208201529091505f906115fd90611433565b90505f81831161160d575f611617565b6116178284611d43565b905080158061162557508085115b15611635575f9350505050611451565b50600195945050505050565b5f611396836001600160a01b038416611992565b6040516001600160a01b03848116602483015283811660448301526064820183905261168e9186918216906323b872dd9060840161149f565b50505050565b5f806116a18686866112dd565b90506116ac836119de565b80156116c757505f84806116c2576116c2611d9f565b868809115b156116da576116d7600182611d6d565b90505b95945050505050565b5f6114516002600301546116f5611a0a565b8491905f611694565b5f611451825490565b5f611451826001611acb565b5f6117276001600160a01b03841683611aed565b905080515f1415801561174b5750808060200190518101906117499190611d80565b155b156104ae57604051635274afe760e01b81526001600160a01b03841660048201526024016103a0565b5f818152600183016020526040812054801561184e575f611796600183611d43565b85549091505f906117a990600190611d43565b9050808214611808575f865f0182815481106117c7576117c7611db3565b905f5260205f200154905080875f0184815481106117e7576117e7611db3565b5f918252602080832090910192909255918252600188019052604090208390555b855486908061181957611819611dc7565b600190038181905f5260205f20015f90559055856001015f8681526020019081526020015f205f905560019350505050611451565b5f915050611451565b5092915050565b6008545f9061139690611872906001611d6d565b600754611880906001611d6d565b85919085611694565b5f611451611895611a0a565b6005548491905f611694565b60015460208201515f91611451916201000090910461ffff16906127109061066490611889565b5f80821161190a5760405162461bcd60e51b815260206004820152600f60248201526e1e995c9bc818dbdb1b185d195c985b608a1b60448201526064016103a0565b61139661271061191984611889565b8591906112dd565b6001545f9081906119419061ffff80821691640100000000900416611afa565b905061142b612710825f61141e8789611d43565b6001545f9081906119879061197890640100000000900461ffff16612710611ddb565b849061ffff166127105f611694565b9050611396816116e3565b5f8181526001830160205260408120546119d757508154600181810184555f848152602080822090930184905584548482528286019093526040902091909155611451565b505f611451565b5f60028260038111156119f3576119f3611df6565b6119fd9190611e0a565b60ff166001149050919050565b5f8060025f015f9054906101000a90046001600160a01b03166001600160a01b031663feaf968c6040518163ffffffff1660e01b815260040160a060405180830381865afa158015611a5e573d5f803e3d5ffd5b505050506040513d601f19601f82011682018060405250810190611a829190611e50565b5050509150505f811361146d5760405162461bcd60e51b815260206004820152601160248201527070726963654c6573737468616e7a65726f60781b60448201526064016103a0565b6007545f9061139690611adf906001611d6d565b600854611880906001611d6d565b606061139683835f611b29565b5f611b0f61ffff8481169084166127106112dd565b611b1b84612710611e9c565b61ffff166113969190611d43565b606081471015611b4e5760405163cd78605960e01b81523060048201526024016103a0565b5f80856001600160a01b03168486604051611b699190611eb7565b5f6040518083038185875af1925050503d805f8114611ba3576040519150601f19603f3d011682016040523d82523d5f602084013e611ba8565b606091505b5091509150611bb8868383611bc2565b9695505050505050565b606082611bd757611bd282611c1e565b611396565b8151158015611bee57506001600160a01b0384163b155b15611c1757604051639996b31560e01b81526001600160a01b03851660048201526024016103a0565b5080611396565b805115611c2e5780518082602001fd5b604051630a12f52160e11b815260040160405180910390fd5b80356001600160a01b038116811461146d575f80fd5b5f8060408385031215611c6e575f80fd5b611c7783611c47565b946020939093013593505050565b5f805f60608486031215611c97575f80fd5b611ca084611c47565b9250611cae60208501611c47565b9150604084013590509250925092565b5f8060408385031215611ccf575f80fd5b611cd883611c47565b9150611ce660208401611c47565b90509250929050565b5f60208284031215611cff575f80fd5b61139682611c47565b6020808252600d908201526c24b73b30b634b22937baba32b960991b604082015260600190565b634e487b7160e01b5f52601160045260245ffd5b8181038181111561145157611451611d2f565b808202811582820484141761145157611451611d2f565b8082018082111561145157611451611d2f565b5f60208284031215611d90575f80fd5b81518015158114611396575f80fd5b634e487b7160e01b5f52601260045260245ffd5b634e487b7160e01b5f52603260045260245ffd5b634e487b7160e01b5f52603160045260245ffd5b61ffff81811683821601908082111561185757611857611d2f565b634e487b7160e01b5f52602160045260245ffd5b5f60ff831680611e2857634e487b7160e01b5f52601260045260245ffd5b8060ff84160691505092915050565b805169ffffffffffffffffffff8116811461146d575f80fd5b5f805f805f60a08688031215611e64575f80fd5b611e6d86611e37565b9450602086015193506040860151925060608601519150611e9060808701611e37565b90509295509295909350565b61ffff82811682821603908082111561185757611857611d2f565b5f82515f5b81811015611ed65760208186018101518583015201611ebc565b505f92019182525091905056fea2646970667358221220e5dc4692dad7bdaedc62fc46420e128a43c4e5556af59c311203be1c4d5da74f64736f6c63430008180033",
        "linkReferences": {}
    },
    "methodIdentifiers": {
        "Router()": "f6d7eade",
        "StableCoin()": "a291985d",
        "accureInterest()": "a373ed4e",
        "aggregateState()": "0e360951",
        "borrowFiat(address,uint256)": "a5c26308",
        "borrowRatePerSecond()": "52609750",
        "collateralAsset()": "aabaecd6",
        "collateralConfig()": "5c0ab4de",
        "depositCollateral(address,uint256)": "a5d5db0c",
        "lastAccrual()": "7b3baab4",
        "liquidate(address,address)": "86b9d81f",
        "ltvConfig()": "a7b11070",
        "owner()": "8da5cb5b",
        "pause()": "8456cb59",
        "paused()": "5c975abb",
        "renounceOwnership()": "715018a6",
        "repayFiat(address,address,uint256)": "575963f1",
        "transferOwnership(address)": "f2fde38b",
        "unpause()": "3f4ba83a",
        "withdrawCollateral(address,uint256)": "350c35e9"
    },
    "id": 33
}