{
    "abi": [
        {
            "type": "constructor",
            "inputs": [
                {
                    "name": "_weth",
                    "type": "address",
                    "internalType": "address"
                },
                {
                    "name": "_masterOracle",
                    "type": "address",
                    "internalType": "address"
                }
            ],
            "stateMutability": "nonpayable"
        },
        {
            "type": "function",
            "name": "MASTER_ORACLE",
            "inputs": [],
            "outputs": [
                {
                    "name": "",
                    "type": "address",
                    "internalType": "address"
                }
            ],
            "stateMutability": "view"
        },
        {
            "type": "function",
            "name": "ROUTER",
            "inputs": [],
            "outputs": [
                {
                    "name": "",
                    "type": "address",
                    "internalType": "address"
                }
            ],
            "stateMutability": "view"
        },
        {
            "type": "function",
            "name": "WETH",
            "inputs": [],
            "outputs": [
                {
                    "name": "",
                    "type": "address",
                    "internalType": "address"
                }
            ],
            "stateMutability": "view"
        },
        {
            "type": "function",
            "name": "allMarkets",
            "inputs": [
                {
                    "name": "",
                    "type": "uint256",
                    "internalType": "uint256"
                }
            ],
            "outputs": [
                {
                    "name": "",
                    "type": "address",
                    "internalType": "address"
                }
            ],
            "stateMutability": "view"
        },
        {
            "type": "function",
            "name": "allMarketsLength",
            "inputs": [],
            "outputs": [
                {
                    "name": "",
                    "type": "uint256",
                    "internalType": "uint256"
                }
            ],
            "stateMutability": "view"
        },
        {
            "type": "function",
            "name": "createMarket",
            "inputs": [
                {
                    "name": "tParams",
                    "type": "tuple",
                    "internalType": "struct IMultiFiatFactory.TokenParams",
                    "components": [
                        {
                            "name": "country",
                            "type": "string",
                            "internalType": "string"
                        },
                        {
                            "name": "currency",
                            "type": "string",
                            "internalType": "string"
                        }
                    ]
                },
                {
                    "name": "bParams",
                    "type": "tuple",
                    "internalType": "struct IMultiFiatFactory.BorrowParams",
                    "components": [
                        {
                            "name": "minBorrowAmount",
                            "type": "uint256",
                            "internalType": "uint256"
                        },
                        {
                            "name": "minCollatAmount",
                            "type": "uint256",
                            "internalType": "uint256"
                        },
                        {
                            "name": "safeLtvBp",
                            "type": "uint16",
                            "internalType": "uint16"
                        },
                        {
                            "name": "liquidationLtvBp",
                            "type": "uint16",
                            "internalType": "uint16"
                        },
                        {
                            "name": "liquidationPenaltyBp",
                            "type": "uint16",
                            "internalType": "uint16"
                        },
                        {
                            "name": "borrowRatePerYearBp",
                            "type": "uint16",
                            "internalType": "uint16"
                        }
                    ]
                }
            ],
            "outputs": [
                {
                    "name": "stableCoin",
                    "type": "address",
                    "internalType": "address"
                },
                {
                    "name": "borrowStable",
                    "type": "address",
                    "internalType": "address"
                }
            ],
            "stateMutability": "nonpayable"
        },
        {
            "type": "function",
            "name": "getMarket",
            "inputs": [
                {
                    "name": "",
                    "type": "address",
                    "internalType": "address"
                },
                {
                    "name": "",
                    "type": "address",
                    "internalType": "address"
                }
            ],
            "outputs": [
                {
                    "name": "",
                    "type": "address",
                    "internalType": "address"
                }
            ],
            "stateMutability": "view"
        },
        {
            "type": "function",
            "name": "getMarketAtIndex",
            "inputs": [
                {
                    "name": "index",
                    "type": "uint256",
                    "internalType": "uint256"
                }
            ],
            "outputs": [
                {
                    "name": "",
                    "type": "address",
                    "internalType": "address"
                }
            ],
            "stateMutability": "view"
        },
        {
            "type": "function",
            "name": "owner",
            "inputs": [],
            "outputs": [
                {
                    "name": "",
                    "type": "address",
                    "internalType": "address"
                }
            ],
            "stateMutability": "view"
        },
        {
            "type": "function",
            "name": "renounceOwnership",
            "inputs": [],
            "outputs": [],
            "stateMutability": "nonpayable"
        },
        {
            "type": "function",
            "name": "setRouter",
            "inputs": [
                {
                    "name": "routerAddr",
                    "type": "address",
                    "internalType": "address"
                }
            ],
            "outputs": [],
            "stateMutability": "nonpayable"
        },
        {
            "type": "function",
            "name": "transferOwnership",
            "inputs": [
                {
                    "name": "newOwner",
                    "type": "address",
                    "internalType": "address"
                }
            ],
            "outputs": [],
            "stateMutability": "nonpayable"
        },
        {
            "type": "event",
            "name": "MarketCreated",
            "inputs": [
                {
                    "name": "stableCoin",
                    "type": "address",
                    "indexed": true,
                    "internalType": "address"
                },
                {
                    "name": "collateral",
                    "type": "address",
                    "indexed": true,
                    "internalType": "address"
                },
                {
                    "name": "borrowStable",
                    "type": "address",
                    "indexed": true,
                    "internalType": "address"
                },
                {
                    "name": "marketLength",
                    "type": "uint256",
                    "indexed": false,
                    "internalType": "uint256"
                }
            ],
            "anonymous": false
        },
        {
            "type": "event",
            "name": "OwnershipTransferred",
            "inputs": [
                {
                    "name": "previousOwner",
                    "type": "address",
                    "indexed": true,
                    "internalType": "address"
                },
                {
                    "name": "newOwner",
                    "type": "address",
                    "indexed": true,
                    "internalType": "address"
                }
            ],
            "anonymous": false
        },
        {
            "type": "event",
            "name": "routerUpdated",
            "inputs": [
                {
                    "name": "owner",
                    "type": "address",
                    "indexed": true,
                    "internalType": "address"
                },
                {
                    "name": "router",
                    "type": "address",
                    "indexed": true,
                    "internalType": "address"
                }
            ],
            "anonymous": false
        },
        {
            "type": "error",
            "name": "OwnableInvalidOwner",
            "inputs": [
                {
                    "name": "owner",
                    "type": "address",
                    "internalType": "address"
                }
            ]
        },
        {
            "type": "error",
            "name": "OwnableUnauthorizedAccount",
            "inputs": [
                {
                    "name": "account",
                    "type": "address",
                    "internalType": "address"
                }
            ]
        }
    ],
    "bytecode": {
        "object": "0x60c060405234801562000010575f80fd5b506040516200487938038062004879833981016040819052620000339162000199565b33806200005a57604051631e4fbdf760e01b81525f60048201526024015b60405180910390fd5b62000065816200012e565b506001600160a01b038216620000be5760405162461bcd60e51b815260206004820152601460248201527f496e76616c696420574554482041646472657373000000000000000000000000604482015260640162000051565b6001600160a01b038116620001165760405162461bcd60e51b815260206004820152601660248201527f496e76616c6964204f7261636c65204164647265737300000000000000000000604482015260640162000051565b6001600160a01b039182166080521660a052620001cf565b5f80546001600160a01b038381166001600160a01b0319831681178455604051919092169283917f8be0079c531659141344cd1fd0a4f28419497f9722a3daafe3b4186f6b6457e09190a35050565b80516001600160a01b038116811462000194575f80fd5b919050565b5f8060408385031215620001ab575f80fd5b620001b6836200017d565b9150620001c6602084016200017d565b90509250929050565b60805160a051614650620002295f395f8181610205015281816103b9015281816104ed015261061a01525f81816101c601528181610469015281816104c60152818161074a015281816107b1015261088501526146505ff3fe608060405234801562000010575f80fd5b5060043610620000c0575f3560e01c80638da5cb5b11620000775780638da5cb5b1462000177578063a30612281462000188578063ad5c464814620001c0578063c0d7865514620001e8578063ef81257914620001ff578063f2fde38b1462000227575f80fd5b806332fe7b2614620000c457806340d5c21514620000f557806352d84d1e146200010c578063714af34b1462000123578063715018a6146200015957806388dd46a11462000165575b5f80fd5b600154620000d8906001600160a01b031681565b6040516001600160a01b0390911681526020015b60405180910390f35b620000d86200010636600462000a7c565b6200023e565b620000d86200011d36600462000a7c565b620002bd565b620000d86200013436600462000ab0565b600260209081525f92835260408084209091529082529020546001600160a01b031681565b62000163620002e6565b005b600354604051908152602001620000ec565b5f546001600160a01b0316620000d8565b6200019f6200019936600462000ae6565b620002fd565b604080516001600160a01b03938416815292909116602083015201620000ec565b620000d87f000000000000000000000000000000000000000000000000000000000000000081565b62000163620001f936600462000b44565b62000904565b620000d87f000000000000000000000000000000000000000000000000000000000000000081565b620001636200023836600462000b44565b620009a0565b6003545f9082106200028d5760405162461bcd60e51b8152602060048201526013602482015272496e646578206f7574206f6620626f756e647360681b60448201526064015b60405180910390fd5b60038281548110620002a357620002a362000b67565b5f918252602090912001546001600160a01b031692915050565b60038181548110620002cd575f80fd5b5f918252602090912001546001600160a01b0316905081565b620002f0620009e3565b620002fb5f62000a11565b565b5f8062000309620009e3565b5f62000316858062000b7b565b62000325602088018862000b7b565b6040516020016200033a949392919062000bc8565b60408051601f19818403018152919052805160209091012090505f81308062000364898062000b7b565b6200037360208c018c62000b7b565b604051620003819062000a60565b620003929695949392919062000c0f565b8190604051809103905ff5905080158015620003b0573d5f803e3d5ffd5b5090508093505f7f00000000000000000000000000000000000000000000000000000000000000006001600160a01b031663313ce5676040518163ffffffff1660e01b8152600401602060405180830381865afa15801562000414573d5f803e3d5ffd5b505050506040513d601f19601f820116820180604052508101906200043a919062000c5f565b90505f6200044a82600a62000d90565b6040516bffffffffffffffffffffffff19606089811b821660208401527f0000000000000000000000000000000000000000000000000000000000000000901b1660348201529091505f9060480160408051601f198184030181528282528051602091820120610180840183526001600160a01b03808c1685527f00000000000000000000000000000000000000000000000000000000000000008116858401527f00000000000000000000000000000000000000000000000000000000000000008116858501523360608087019190915260015490911660808601528c3560a0860152918c013560c085015293505f929160e08301916200055291908d01908d0162000da0565b61ffff1681526020016200056d60808c0160608d0162000da0565b61ffff1681526020016200058860a08c0160808d0162000da0565b61ffff168152602001620005a360c08c0160a08d0162000da0565b61ffff1681526020018481525090505f8282604051620005c39062000a6e565b620005cf919062000dc3565b8190604051809103905ff5905080158015620005ed573d5f803e3d5ffd5b506040516316d58f9b60e11b81526001600160a01b038083166004830152600160248301529199508992507f000000000000000000000000000000000000000000000000000000000000000090911690632dab1f36906044015f604051808303815f87803b1580156200065e575f80fd5b505af115801562000671573d5f803e3d5ffd5b505060405163c670c20160e01b81526001600160a01b038b811660048301528916925063c670c20191506024015f604051808303815f87803b158015620006b6575f80fd5b505af1158015620006c9573d5f803e3d5ffd5b505060405163f2fde38b60e01b81523360048201526001600160a01b038916925063f2fde38b91506024015f604051808303815f87803b1580156200070c575f80fd5b505af11580156200071f573d5f803e3d5ffd5b505050508760025f8b6001600160a01b03166001600160a01b031681526020019081526020015f205f7f00000000000000000000000000000000000000000000000000000000000000006001600160a01b03166001600160a01b031681526020019081526020015f205f6101000a8154816001600160a01b0302191690836001600160a01b031602179055508760025f7f00000000000000000000000000000000000000000000000000000000000000006001600160a01b03166001600160a01b031681526020019081526020015f205f8b6001600160a01b03166001600160a01b031681526020019081526020015f205f6101000a8154816001600160a01b0302191690836001600160a01b03160217905550600388908060018154018082558091505060019003905f5260205f20015f9091909190916101000a8154816001600160a01b0302191690836001600160a01b03160217905550876001600160a01b03167f00000000000000000000000000000000000000000000000000000000000000006001600160a01b03168a6001600160a01b03167ffe7e33f239f268e882861cae62e631558d814973588d97738cc084b8b3489599600380549050604051620008ee91815260200190565b60405180910390a4505050505050509250929050565b6200090e620009e3565b6001600160a01b038116620009555760405162461bcd60e51b815260206004820152600c60248201526b7a65726f206164647265737360a01b604482015260640162000284565b600180546001600160a01b0319166001600160a01b03831690811790915560405133907fc39066a0834df96b3282322903ba6662d4c35a464fbfb1cb2f5aa97226a97db4905f90a350565b620009aa620009e3565b6001600160a01b038116620009d557604051631e4fbdf760e01b81525f600482015260240162000284565b620009e08162000a11565b50565b5f546001600160a01b03163314620002fb5760405163118cdaa760e01b815233600482015260240162000284565b5f80546001600160a01b038381166001600160a01b0319831681178455604051919092169283917f8be0079c531659141344cd1fd0a4f28419497f9722a3daafe3b4186f6b6457e09190a35050565b6110028062000eb683390190565b6127638062001eb883390190565b5f6020828403121562000a8d575f80fd5b5035919050565b80356001600160a01b038116811462000aab575f80fd5b919050565b5f806040838503121562000ac2575f80fd5b62000acd8362000a94565b915062000add6020840162000a94565b90509250929050565b5f8082840360e081121562000af9575f80fd5b833567ffffffffffffffff81111562000b10575f80fd5b84016040818703121562000b22575f80fd5b925060c0601f198201121562000b36575f80fd5b506020830190509250929050565b5f6020828403121562000b55575f80fd5b62000b608262000a94565b9392505050565b634e487b7160e01b5f52603260045260245ffd5b5f808335601e1984360301811262000b91575f80fd5b83018035915067ffffffffffffffff82111562000bac575f80fd5b60200191503681900382131562000bc1575f80fd5b9250929050565b838582375f8482015f8152838582375f93019283525090949350505050565b81835281816020850137505f828201602090810191909152601f909101601f19169091010190565b6001600160a01b038781168252861660208201526080604082018190525f9062000c3d908301868862000be7565b828103606084015262000c5281858762000be7565b9998505050505050505050565b5f6020828403121562000c70575f80fd5b815160ff8116811462000b60575f80fd5b634e487b7160e01b5f52601160045260245ffd5b600181815b8085111562000cd557815f190482111562000cb95762000cb962000c81565b8085161562000cc757918102915b93841c939080029062000c9a565b509250929050565b5f8262000ced5750600162000d8a565b8162000cfb57505f62000d8a565b816001811462000d14576002811462000d1f5762000d3f565b600191505062000d8a565b60ff84111562000d335762000d3362000c81565b50506001821b62000d8a565b5060208310610133831016604e8410600b841016171562000d64575081810a62000d8a565b62000d70838362000c95565b805f190482111562000d865762000d8662000c81565b0290505b92915050565b5f62000b6060ff84168362000cdd565b5f6020828403121562000db1575f80fd5b813561ffff8116811462000b60575f80fd5b81516001600160a01b031681526101808101602083015162000df060208401826001600160a01b03169052565b50604083015162000e0c60408401826001600160a01b03169052565b50606083015162000e2860608401826001600160a01b03169052565b50608083015162000e4460808401826001600160a01b03169052565b5060a083015160a083015260c083015160c083015260e083015162000e6f60e084018261ffff169052565b506101008381015161ffff81168483015250506101208381015161ffff81168483015250506101408381015161ffff81168483015250506101609283015191909201529056fe608060405234801562000010575f80fd5b50604051620010023803806200100283398101604081905262000033916200027b565b838260405160200162000047919062000306565b6040516020818303038152906040528260405160200162000069919062000336565b60408051601f198184030181529190526003620000878382620003ec565b506004620000968282620003ec565b5050506001600160a01b038116620000c857604051631e4fbdf760e01b81525f60048201526024015b60405180910390fd5b620000d38162000148565b506001600160a01b0383166200011f5760405162461bcd60e51b815260206004820152601060248201526f125b9d985b1a59081c1c9bdd1bd8dbdb60821b6044820152606401620000bf565b5050600680546001600160a01b0319166001600160a01b039290921691909117905550620004b8565b600580546001600160a01b038381166001600160a01b0319831681179093556040519116919082907f8be0079c531659141344cd1fd0a4f28419497f9722a3daafe3b4186f6b6457e0905f90a35050565b80516001600160a01b0381168114620001b0575f80fd5b919050565b634e487b7160e01b5f52604160045260245ffd5b5f5b83811015620001e5578181015183820152602001620001cb565b50505f910152565b5f82601f830112620001fd575f80fd5b81516001600160401b03808211156200021a576200021a620001b5565b604051601f8301601f19908116603f01168101908282118183101715620002455762000245620001b5565b816040528381528660208588010111156200025e575f80fd5b62000271846020830160208901620001c9565b9695505050505050565b5f805f80608085870312156200028f575f80fd5b6200029a8562000199565b9350620002aa6020860162000199565b60408601519093506001600160401b0380821115620002c7575f80fd5b620002d588838901620001ed565b93506060870151915080821115620002eb575f80fd5b50620002fa87828801620001ed565b91505092959194509250565b66537461626c655f60c81b81525f825162000329816007850160208701620001c9565b9190910160070192915050565b6253545f60e81b81525f825162000355816003850160208701620001c9565b9190910160030192915050565b600181811c908216806200037757607f821691505b6020821081036200039657634e487b7160e01b5f52602260045260245ffd5b50919050565b601f821115620003e757805f5260205f20601f840160051c81016020851015620003c35750805b601f840160051c820191505b81811015620003e4575f8155600101620003cf565b50505b505050565b81516001600160401b03811115620004085762000408620001b5565b620004208162000419845462000362565b846200039c565b602080601f83116001811462000456575f84156200043e5750858301515b5f19600386901b1c1916600185901b178555620004b0565b5f85815260208120601f198616915b82811015620004865788860151825594840194600190910190840162000465565b5085821015620004a457878501515f19600388901b60f8161c191681555b505060018460011b0185555b505050505050565b610b3c80620004c65f395ff3fe608060405234801561000f575f80fd5b5060043610610106575f3560e01c8063715018a61161009e578063a9059cbb1161006e578063a9059cbb14610226578063c670c20114610239578063dd62ed3e1461024c578063f2fde38b14610284578063f434bb6814610297575f80fd5b8063715018a6146101de5780638da5cb5b146101e657806395d89b411461020b5780639dc29fac14610213575f80fd5b80632d5a5c76116100d95780632d5a5c7614610170578063313ce5671461019257806340c10f19146101a157806370a08231146101b6575f80fd5b806306fdde031461010a578063095ea7b31461012857806318160ddd1461014b57806323b872dd1461015d575b5f80fd5b6101126102a8565b60405161011f9190610996565b60405180910390f35b61013b6101363660046109fd565b610338565b604051901515815260200161011f565b6002545b60405190815260200161011f565b61013b61016b366004610a25565b610351565b61013b61017e366004610a5e565b6006546001600160a01b0391821691161490565b6040516012815260200161011f565b6101b46101af3660046109fd565b610374565b005b61014f6101c4366004610a5e565b6001600160a01b03165f9081526020819052604090205490565b6101b46103cb565b6005546001600160a01b03165b6040516001600160a01b03909116815260200161011f565b6101126103de565b6101b46102213660046109fd565b6103ed565b61013b6102343660046109fd565b61043c565b6101b4610247366004610a5e565b610449565b61014f61025a366004610a7e565b6001600160a01b039182165f90815260016020908152604080832093909416825291909152205490565b6101b4610292366004610a5e565b610540565b6006546001600160a01b03166101f3565b6060600380546102b790610aaf565b80601f01602080910402602001604051908101604052809291908181526020018280546102e390610aaf565b801561032e5780601f106103055761010080835404028352916020019161032e565b820191905f5260205f20905b81548152906001019060200180831161031157829003601f168201915b5050505050905090565b5f3361034581858561057d565b60019150505b92915050565b5f3361035e85828561058f565b61036985858561060a565b506001949350505050565b61037c610667565b61038682826106b4565b6040518181526001600160a01b0383169033907fab8530f87dc9b59234c4623bf917212bb2536d647574c8e7e5da92c2ede0c9f8906020015b60405180910390a35050565b6103d36106ec565b6103dc5f610719565b565b6060600480546102b790610aaf565b6103f5610667565b6103ff828261076a565b6040518181526001600160a01b0383169033907fbac40739b0d4ca32fa2d82fc91630465ba3eddd1598da6fca393b26fb63b9453906020016103bf565b5f3361034581858561060a565b6104516106ec565b6001600160a01b03811661049f5760405162461bcd60e51b815260206004820152601060248201526f125b9d985b1a59081c1c9bdd1bd8dbdb60821b60448201526064015b60405180910390fd5b6006546001600160a01b03908116908216036104f45760405162461bcd60e51b8152602060048201526014602482015273141c9bdd1bd8dbdb08185b1c9958591e481cd95d60621b6044820152606401610496565b600680546001600160a01b0319166001600160a01b0383169081179091556040513391907fecfb576fdf872d32b433f76bedec21d73f8536d896421a59d9586fd3cf67ad0b905f90a350565b6105486106ec565b6001600160a01b03811661057157604051631e4fbdf760e01b81525f6004820152602401610496565b61057a81610719565b50565b61058a838383600161079e565b505050565b6001600160a01b038381165f908152600160209081526040808320938616835292905220545f19811461060457818110156105f657604051637dc7a0d960e11b81526001600160a01b03841660048201526024810182905260448101839052606401610496565b61060484848484035f61079e565b50505050565b6001600160a01b03831661063357604051634b637e8f60e11b81525f6004820152602401610496565b6001600160a01b03821661065c5760405163ec442f0560e01b81525f6004820152602401610496565b61058a838383610870565b6006546001600160a01b031633146103dc5760405162461bcd60e51b815260206004820152601060248201526f125b9d985b1a59081c1c9bdd1bd8dbdb60821b6044820152606401610496565b6001600160a01b0382166106dd5760405163ec442f0560e01b81525f6004820152602401610496565b6106e85f8383610870565b5050565b6005546001600160a01b031633146103dc5760405163118cdaa760e01b8152336004820152602401610496565b600580546001600160a01b038381166001600160a01b0319831681179093556040519116919082907f8be0079c531659141344cd1fd0a4f28419497f9722a3daafe3b4186f6b6457e0905f90a35050565b6001600160a01b03821661079357604051634b637e8f60e11b81525f6004820152602401610496565b6106e8825f83610870565b6001600160a01b0384166107c75760405163e602df0560e01b81525f6004820152602401610496565b6001600160a01b0383166107f057604051634a1406b160e11b81525f6004820152602401610496565b6001600160a01b038085165f908152600160209081526040808320938716835292905220829055801561060457826001600160a01b0316846001600160a01b03167f8c5be1e5ebec7d5bd14f71427d1e84f3dd0314c0f7b2291e5b200ac8c7c3b9258460405161086291815260200190565b60405180910390a350505050565b6001600160a01b03831661089a578060025f82825461088f9190610ae7565b9091555061090a9050565b6001600160a01b0383165f90815260208190526040902054818110156108ec5760405163391434e360e21b81526001600160a01b03851660048201526024810182905260448101839052606401610496565b6001600160a01b0384165f9081526020819052604090209082900390555b6001600160a01b03821661092657600280548290039055610944565b6001600160a01b0382165f9081526020819052604090208054820190555b816001600160a01b0316836001600160a01b03167fddf252ad1be2c89b69c2b068fc378daa952ba7f163c4a11628f55a4df523b3ef8360405161098991815260200190565b60405180910390a3505050565b5f602080835283518060208501525f5b818110156109c2578581018301518582016040015282016109a6565b505f604082860101526040601f19601f8301168501019250505092915050565b80356001600160a01b03811681146109f8575f80fd5b919050565b5f8060408385031215610a0e575f80fd5b610a17836109e2565b946020939093013593505050565b5f805f60608486031215610a37575f80fd5b610a40846109e2565b9250610a4e602085016109e2565b9150604084013590509250925092565b5f60208284031215610a6e575f80fd5b610a77826109e2565b9392505050565b5f8060408385031215610a8f575f80fd5b610a98836109e2565b9150610aa6602084016109e2565b90509250929050565b600181811c90821680610ac357607f821691505b602082108103610ae157634e487b7160e01b5f52602260045260245ffd5b50919050565b8082018082111561034b57634e487b7160e01b5f52601160045260245ffdfea26469706673582212202f979df5929bc29fd9aeefb8450e8cbfa2174f06a648b941dea10bd7ca0dbcae64736f6c6343000818003360e060405234801562000010575f80fd5b506040516200276338038062002763833981016040819052620000339162000609565b60608101516001600160a01b0381166200006757604051631e4fbdf760e01b81525f60048201526024015b60405180910390fd5b620000728162000287565b505f805460ff60a01b1916905560a0810151612710118015906200009c57506127108160c0015110155b620000ea5760405162461bcd60e51b815260206004820152601360248201527f4c6573735468616e4d696e4f70416d6f756e740000000000000000000000000060448201526064016200005e565b6200010b8160e00151826101000151836101200151620002d660201b60201c565b6105dc61ffff1681610140015161ffff161115620001605760405162461bcd60e51b8152602060048201526011602482015270084dee4e4deeea4c2e8caa8dede90d2ced607b1b60448201526064016200005e565b80516001600160a01b039081166080908152602080840151831660a090815282850151841660c0908152604080516060808201835260e089015161ffff9081168084526101008b015182168489018190526101208c01519092169385018490526001805463ffffffff1916909117620100009092029190911761ffff60201b1916640100000000909302929092179091558151958601825281880151909616808652918701519385018490529186015191840182905261016086015193909401839052600280546001600160a01b03191690941790935560035560049190915560055562000279655af3107a40006200025f6201518061016d62000709565b61014084015161ffff16919063ffffffff16600162000454565b600b555042600a55620007cb565b5f80546001600160a01b038381166001600160a01b0319831681178455604051919092169283917f8be0079c531659141344cd1fd0a4f28419497f9722a3daafe3b4186f6b6457e09190a35050565b610fa061ffff841610801590620002f35750611b5861ffff841611155b620003415760405162461bcd60e51b815260206004820152601360248201527f536166654c747642704f75744f6652616e67650000000000000000000000000060448201526064016200005e565b620003516103e861271062000734565b61ffff168261ffff161115620003aa5760405162461bcd60e51b815260206004820152601860248201527f4c69717569646174696f6e4c74764270546f6f4c61726765000000000000000060448201526064016200005e565b6103e861ffff82161115620004025760405162461bcd60e51b815260206004820152601c60248201527f4c69717569646174696f6e50656e616c74794270546f6f4c617267650000000060448201526064016200005e565b8161ffff168361ffff16106200044f5760405162461bcd60e51b8152602060048201526011602482015270536166654c74764270546f6f4c6172676560781b60448201526064016200005e565b505050565b5f8062000463868686620004ae565b9050620004708362000574565b80156200048f57505f84806200048a576200048a62000759565b868809115b15620004a557620004a26001826200076d565b90505b95945050505050565b5f838302815f1985870982811083820303915050805f03620004e757838281620004dc57620004dc62000759565b04925050506200056d565b808411620005085760405163227bc15360e01b815260040160405180910390fd5b5f848688095f868103871696879004966002600389028118808a02820302808a02820302808a02820302808a02820302808a02820302808a02909103029181900381900460010186841190950394909402919094039290920491909117919091029150505b9392505050565b5f60028260038111156200058c576200058c62000789565b6200059891906200079d565b60ff166001149050919050565b60405161018081016001600160401b0381118282101715620005d557634e487b7160e01b5f52604160045260245ffd5b60405290565b80516001600160a01b0381168114620005f2575f80fd5b919050565b805161ffff81168114620005f2575f80fd5b5f61018082840312156200061b575f80fd5b62000625620005a5565b6200063083620005db565b81526200064060208401620005db565b60208201526200065360408401620005db565b60408201526200066660608401620005db565b60608201526200067960808401620005db565b608082015260a083015160a082015260c083015160c0820152620006a060e08401620005f7565b60e0820152610100620006b5818501620005f7565b90820152610120620006c9848201620005f7565b90820152610140620006dd848201620005f7565b90820152610160928301519281019290925250919050565b634e487b7160e01b5f52601160045260245ffd5b63ffffffff8181168382160280821691908281146200072c576200072c620006f5565b505092915050565b61ffff828116828216039080821115620007525762000752620006f5565b5092915050565b634e487b7160e01b5f52601260045260245ffd5b80820180821115620007835762000783620006f5565b92915050565b634e487b7160e01b5f52602160045260245ffd5b5f60ff831680620007bc57634e487b7160e01b5f52601260045260245ffd5b8060ff84160691505092915050565b60805160a05160c051611f196200084a5f395f818161033601528181610363015281816103dc015281816104df015261058601525f81816102fc0152818161098701528181610f5d015261126201525f818161025e015281816106c60152818161072701528181610be801528181610c9501526111260152611f195ff3fe608060405234801561000f575f80fd5b5060043610610127575f3560e01c806386b9d81f116100a9578063a5d5db0c1161006e578063a5d5db0c1461029b578063a7b11070146102ae578063aabaecd6146102f7578063f2fde38b1461031e578063f6d7eade14610331575f80fd5b806386b9d81f146102225780638da5cb5b14610235578063a291985d14610259578063a373ed4e14610280578063a5c2630814610288575f80fd5b80635c0ab4de116100ef5780635c0ab4de146101a45780635c975abb146101ed578063715018a6146102095780637b3baab4146102115780638456cb591461021a575f80fd5b80630e3609511461012b578063350c35e91461015d5780633f4ba83a14610172578063526097501461017a578063575963f114610191575b5f80fd5b60065460075460085461013d92919083565b604080519384526020840192909252908201526060015b60405180910390f35b61017061016b366004611c5d565b610358565b005b6101706103bf565b610183600b5481565b604051908152602001610154565b61017061019f366004611c85565b6103d1565b6002546003546004546005546101c3936001600160a01b031692919084565b604080516001600160a01b0390951685526020850193909352918301526060820152608001610154565b5f54600160a01b900460ff166040519015158152602001610154565b6101706104b3565b610183600a5481565b6101706104c4565b610170610230366004611cbe565b6104d4565b5f546001600160a01b03165b6040516001600160a01b039091168152602001610154565b6102417f000000000000000000000000000000000000000000000000000000000000000081565b610170610573565b610170610296366004611c5d565b61057b565b6101706102a9366004611c5d565b6105d5565b6001546102d29061ffff808216916201000081048216916401000000009091041683565b6040805161ffff94851681529284166020840152921691810191909152606001610154565b6102417f000000000000000000000000000000000000000000000000000000000000000081565b61017061032c366004611cef565b6105e8565b6102417f000000000000000000000000000000000000000000000000000000000000000081565b336001600160a01b037f000000000000000000000000000000000000000000000000000000000000000016146103a95760405162461bcd60e51b81526004016103a090611d08565b60405180910390fd5b6103b1610625565b6103bb8282610812565b5050565b6103c76109f7565b6103cf610a23565b565b336001600160a01b037f000000000000000000000000000000000000000000000000000000000000000016146104195760405162461bcd60e51b81526004016103a090611d08565b5f81116104565760405162461bcd60e51b815260206004820152600b60248201526a1e995c9bc8105b5bdd5b9d60aa1b60448201526064016103a0565b6001600160a01b03821661049b5760405162461bcd60e51b815260206004820152600c60248201526b7a65726f206164647265737360a01b60448201526064016103a0565b6104a3610625565b6104ae838383610a77565b505050565b6104bb6109f7565b6103cf5f610d52565b6104cc6109f7565b6103cf610da1565b336001600160a01b037f0000000000000000000000000000000000000000000000000000000000000000161461051c5760405162461bcd60e51b81526004016103a090611d08565b6001600160a01b0381166105615760405162461bcd60e51b815260206004820152600c60248201526b7a65726f206164647265737360a01b60448201526064016103a0565b610569610625565b6103bb8282610de3565b6103cf610625565b336001600160a01b037f000000000000000000000000000000000000000000000000000000000000000016146105c35760405162461bcd60e51b81526004016103a090611d08565b6105cb610625565b6103bb8282610fe3565b6105dd610625565b6103bb3383836111b8565b6105f06109f7565b6001600160a01b03811661061957604051631e4fbdf760e01b81525f60048201526024016103a0565b61062281610d52565b50565b5f600a54426106349190611d43565b600754909150600182106103bb57801561080a575f61066b82670de0b6b3a764000085600b546106649190611d56565b91906112dd565b90508015610808575f610683826109c46127106112dd565b90505f610695836109c46127106112dd565b90505f6106a28284611d6d565b905080156107eb576040516340c10f1960e01b8152306004820152602481018290527f00000000000000000000000000000000000000000000000000000000000000006001600160a01b0316906340c10f19906044015f604051808303815f87803b15801561070f575f80fd5b505af1158015610721573d5f803e3d5ffd5b505050507f00000000000000000000000000000000000000000000000000000000000000006001600160a01b031663a9059cbb6107655f546001600160a01b031690565b6040516001600160e01b031960e084901b1681526001600160a01b039091166004820152602481018690526044016020604051808303815f875af11580156107af573d5f803e3d5ffd5b505050506040513d601f19601f820116820180604052508101906107d39190611d80565b508160095f8282546107e59190611d6d565b90915550505b8360066001015f8282546107ff9190611d6d565b90915550505050505b505b42600a555050565b61081a61139d565b5f81116108575760405162461bcd60e51b815260206004820152600b60248201526a1e995c9bc8185b5bdd5b9d60aa1b60448201526064016103a0565b6001600160a01b0382165f908152600e602090815260409182902082518084019093528054835260018101549183019190915290610894906113c7565b8211156108e35760405162461bcd60e51b815260206004820152601c60248201527f4e6f74456e6f756768417661696c61626c65436f6c6c61746572616c0000000060448201526064016103a0565b5f8282600101546108f49190611d43565b90505f81118015610906575060035481105b156109595760408051808201909152825481526001830154602082015261092c90611433565b5f036109405750600181015491505f610959565b604051637cacb58560e01b815260040160405180910390fd5b60018201819055600680548491905f90610974908490611d43565b909155506109ae90506001600160a01b037f0000000000000000000000000000000000000000000000000000000000000000168585611472565b836001600160a01b03167f884edad9ce6fa2440d8a54cc123490eb96d2768479d49ff9c7366125a9424364846040516109e991815260200190565b60405180910390a250505050565b5f546001600160a01b031633146103cf5760405163118cdaa760e01b81523360048201526024016103a0565b610a2b6114d1565b5f805460ff60a01b191690557f5db9ee0a495bf2e6ff9c91a7834c1ba4fdd244a5e8aa4e537bd38aeae4b073aa335b6040516001600160a01b03909116815260200160405180910390a1565b610a7f61139d565b6001600160a01b0382165f908152600e60209081526040808320815180830190925280548252600181015492820192909252909190610abd90611433565b90505f8111610afa5760405162461bcd60e51b81526020600482015260096024820152681e995c9bc81919589d60ba1b60448201526064016103a0565b825f808060018401610b0a578493505b83851115610b80575f610b1d8587611d43565b90506127108111158015610b3357508060095410155b15610b6b5786548694509250610b4a600c8a6114fa565b508060095f828254610b5c9190611d43565b92505081905550809150610b7a565b849350610b778561150e565b92505b50610b94565b85548593509150610b92600c896114fa565b505b8260066001015f828254610ba89190611d43565b9091555050600880548391905f90610bc1908490611d43565b90915550508554829087905f90610bd9908490611d43565b90915550506001600160a01b037f000000000000000000000000000000000000000000000000000000000000000016639dc29fac8a610c188487611d43565b6040516001600160e01b031960e085901b1681526001600160a01b03909216600483015260248201526044015f604051808303815f87803b158015610c5b575f80fd5b505af1158015610c6d573d5f803e3d5ffd5b505050505f811115610cf557604051632770a7eb60e21b8152306004820152602481018290527f00000000000000000000000000000000000000000000000000000000000000006001600160a01b031690639dc29fac906044015f604051808303815f87803b158015610cde575f80fd5b505af1158015610cf0573d5f803e3d5ffd5b505050505b6001600160a01b03808916908a167fe4a1ae657f49cb1fb1c7d3a94ae6093565c4c8c0e03de488f79c377c3c3a24e085610d2f818a611d43565b6040805192835260208301919091520160405180910390a3505050505050505050565b5f80546001600160a01b038381166001600160a01b0319831681178455604051919092169283917f8be0079c531659141344cd1fd0a4f28419497f9722a3daafe3b4186f6b6457e09190a35050565b610da961139d565b5f805460ff60a01b1916600160a01b1790557f62e78cea01bee320cd4e420270b5ea74000d11b0c9f74754ebdbfc544b05a258610a5a3390565b610deb61139d565b6001600160a01b0381165f908152600e60209081526040808320815180830190925280548252600181015492820192909252909190610e2990611433565b6040805180820190915283548152600184015460208201529091505f90610e4f90611519565b604080518082019091528454815260018501546020820152909150610e74908361153b565b610eb55760405162461bcd60e51b81526020600482015260126024820152712232b13a34b9aab73232b929b0b332a62a2b60711b60448201526064016103a0565b5f80610ec68484876001015461154e565b915091505f82118015610ed857505f81115b610f135760405162461bcd60e51b815260206004820152600c60248201526b7a65726f20616d6f756e747360a01b60448201526064016103a0565b610f1e878784610a77565b80856001015f828254610f319190611d43565b9091555050600680548291905f90610f4a908490611d43565b90915550610f8490506001600160a01b037f0000000000000000000000000000000000000000000000000000000000000000168883611472565b856001600160a01b0316876001600160a01b03167ff3fa0eaee8f258c23b013654df25d1527f98a5c7ccd5e951dd77caca400ef9728484604051610fd2929190918252602082015260400190565b60405180910390a350505050505050565b610feb61139d565b6004548110156110315760405162461bcd60e51b81526020600482015260116024820152704c6573735468616e4d696e426f72726f7760781b60448201526064016103a0565b6001600160a01b0382165f908152600e6020526040902061105281836115b2565b61109e5760405162461bcd60e51b815260206004820152601b60248201527f4e6f74456e6f756768436f6c6c61746572616c546f426f72726f77000000000060448201526064016103a0565b5f6110a88361150e565b905080825f015f8282546110bc9190611d6d565b9091555050600880548291905f906110d5908490611d6d565b9091555050600780548491905f906110ee908490611d6d565b909155506110ff9050600c85611641565b506040516340c10f1960e01b81526001600160a01b038581166004830152602482018590527f000000000000000000000000000000000000000000000000000000000000000016906340c10f19906044015f604051808303815f87803b158015611167575f80fd5b505af1158015611179573d5f803e3d5ffd5b50506040518592506001600160a01b03871691507fcbc04eca7e9da35cb1393a6135a199ca52e450d5e9251cbd99f7847d33a36750905f90a350505050565b6111c061139d565b60035481101561120a5760405162461bcd60e51b81526020600482015260156024820152741b195cdcd51a185b935a5b90dbdb1b185d195c985b605a1b60448201526064016103a0565b6001600160a01b0382165f908152600e6020526040812060018101805491928492611236908490611d6d565b9091555050600680548391905f9061124f908490611d6d565b9091555061128a90506001600160a01b037f000000000000000000000000000000000000000000000000000000000000000016853085611655565b826001600160a01b0316846001600160a01b03167f5548c837ab068cf56a2c2479df0882a4922fd203edb7517321831d95078c5f62846040516112cf91815260200190565b60405180910390a350505050565b5f838302815f1985870982811083820303915050805f036113115783828161130757611307611d9f565b0492505050611396565b8084116113315760405163227bc15360e01b815260040160405180910390fd5b5f848688095f868103871696879004966002600389028118808a02820302808a02820302808a02820302808a02820302808a02820302808a02909103029181900381900460010186841190950394909402919094039290920491909117919091029150505b9392505050565b5f54600160a01b900460ff16156103cf5760405163d93c066560e01b815260040160405180910390fd5b5f806113d283611433565b9050805f036113e45750506020015190565b5f6113ee84611519565b905080821061140057505f9392505050565b60015461142b90611426906127109061ffff165f61141e8787611d43565b929190611694565b6116e3565b949350505050565b5f6001611440600c6116fe565b111561145757815161145190611707565b92915050565b81511561146657505060075490565b505f919050565b919050565b6040516001600160a01b038381166024830152604482018390526104ae91859182169063a9059cbb906064015b604051602081830303815290604052915060e01b6020820180516001600160e01b038381831617835250505050611713565b5f54600160a01b900460ff166103cf57604051638dfc202b60e01b815260040160405180910390fd5b5f611396836001600160a01b038416611774565b5f611451825f61185e565b60015460208201515f916114519161ffff909116906127109061066490611889565b5f611545836118a1565b90911192915050565b5f805f61155b86856118c8565b60015490915062010000900461ffff1681106115a257612710811015611597576115858686611921565b925061159083611955565b91506115a9565b8592508391506115a9565b5f92505f91505b50935093915050565b6040805180820190915282548152600183015460208201525f9081906115d790611519565b6040805180820190915285548152600186015460208201529091505f906115fd90611433565b90505f81831161160d575f611617565b6116178284611d43565b905080158061162557508085115b15611635575f9350505050611451565b50600195945050505050565b5f611396836001600160a01b038416611992565b6040516001600160a01b03848116602483015283811660448301526064820183905261168e9186918216906323b872dd9060840161149f565b50505050565b5f806116a18686866112dd565b90506116ac836119de565b80156116c757505f84806116c2576116c2611d9f565b868809115b156116da576116d7600182611d6d565b90505b95945050505050565b5f6114516002600301546116f5611a0a565b8491905f611694565b5f611451825490565b5f611451826001611acb565b5f6117276001600160a01b03841683611aed565b905080515f1415801561174b5750808060200190518101906117499190611d80565b155b156104ae57604051635274afe760e01b81526001600160a01b03841660048201526024016103a0565b5f818152600183016020526040812054801561184e575f611796600183611d43565b85549091505f906117a990600190611d43565b9050808214611808575f865f0182815481106117c7576117c7611db3565b905f5260205f200154905080875f0184815481106117e7576117e7611db3565b5f918252602080832090910192909255918252600188019052604090208390555b855486908061181957611819611dc7565b600190038181905f5260205f20015f90559055856001015f8681526020019081526020015f205f905560019350505050611451565b5f915050611451565b5092915050565b6008545f9061139690611872906001611d6d565b600754611880906001611d6d565b85919085611694565b5f611451611895611a0a565b6005548491905f611694565b60015460208201515f91611451916201000090910461ffff16906127109061066490611889565b5f80821161190a5760405162461bcd60e51b815260206004820152600f60248201526e1e995c9bc818dbdb1b185d195c985b608a1b60448201526064016103a0565b61139661271061191984611889565b8591906112dd565b6001545f9081906119419061ffff80821691640100000000900416611afa565b905061142b612710825f61141e8789611d43565b6001545f9081906119879061197890640100000000900461ffff16612710611ddb565b849061ffff166127105f611694565b9050611396816116e3565b5f8181526001830160205260408120546119d757508154600181810184555f848152602080822090930184905584548482528286019093526040902091909155611451565b505f611451565b5f60028260038111156119f3576119f3611df6565b6119fd9190611e0a565b60ff166001149050919050565b5f8060025f015f9054906101000a90046001600160a01b03166001600160a01b031663feaf968c6040518163ffffffff1660e01b815260040160a060405180830381865afa158015611a5e573d5f803e3d5ffd5b505050506040513d601f19601f82011682018060405250810190611a829190611e50565b5050509150505f811361146d5760405162461bcd60e51b815260206004820152601160248201527070726963654c6573737468616e7a65726f60781b60448201526064016103a0565b6007545f9061139690611adf906001611d6d565b600854611880906001611d6d565b606061139683835f611b29565b5f611b0f61ffff8481169084166127106112dd565b611b1b84612710611e9c565b61ffff166113969190611d43565b606081471015611b4e5760405163cd78605960e01b81523060048201526024016103a0565b5f80856001600160a01b03168486604051611b699190611eb7565b5f6040518083038185875af1925050503d805f8114611ba3576040519150601f19603f3d011682016040523d82523d5f602084013e611ba8565b606091505b5091509150611bb8868383611bc2565b9695505050505050565b606082611bd757611bd282611c1e565b611396565b8151158015611bee57506001600160a01b0384163b155b15611c1757604051639996b31560e01b81526001600160a01b03851660048201526024016103a0565b5080611396565b805115611c2e5780518082602001fd5b604051630a12f52160e11b815260040160405180910390fd5b80356001600160a01b038116811461146d575f80fd5b5f8060408385031215611c6e575f80fd5b611c7783611c47565b946020939093013593505050565b5f805f60608486031215611c97575f80fd5b611ca084611c47565b9250611cae60208501611c47565b9150604084013590509250925092565b5f8060408385031215611ccf575f80fd5b611cd883611c47565b9150611ce660208401611c47565b90509250929050565b5f60208284031215611cff575f80fd5b61139682611c47565b6020808252600d908201526c24b73b30b634b22937baba32b960991b604082015260600190565b634e487b7160e01b5f52601160045260245ffd5b8181038181111561145157611451611d2f565b808202811582820484141761145157611451611d2f565b8082018082111561145157611451611d2f565b5f60208284031215611d90575f80fd5b81518015158114611396575f80fd5b634e487b7160e01b5f52601260045260245ffd5b634e487b7160e01b5f52603260045260245ffd5b634e487b7160e01b5f52603160045260245ffd5b61ffff81811683821601908082111561185757611857611d2f565b634e487b7160e01b5f52602160045260245ffd5b5f60ff831680611e2857634e487b7160e01b5f52601260045260245ffd5b8060ff84160691505092915050565b805169ffffffffffffffffffff8116811461146d575f80fd5b5f805f805f60a08688031215611e64575f80fd5b611e6d86611e37565b9450602086015193506040860151925060608601519150611e9060808701611e37565b90509295509295909350565b61ffff82811682821603908082111561185757611857611d2f565b5f82515f5b81811015611ed65760208186018101518583015201611ebc565b505f92019182525091905056fea2646970667358221220e5dc4692dad7bdaedc62fc46420e128a43c4e5556af59c311203be1c4d5da74f64736f6c63430008180033a2646970667358221220b17a6128566387dc998815dc4304d27019b211a3c3bbaf3f79c3fbf66fa184fd64736f6c63430008180033",
        "linkReferences": {}
    },
    "methodIdentifiers": {
        "MASTER_ORACLE()": "ef812579",
        "ROUTER()": "32fe7b26",
        "WETH()": "ad5c4648",
        "allMarkets(uint256)": "52d84d1e",
        "allMarketsLength()": "88dd46a1",
        "createMarket((string,string),(uint256,uint256,uint16,uint16,uint16,uint16))": "a3061228",
        "getMarket(address,address)": "714af34b",
        "getMarketAtIndex(uint256)": "40d5c215",
        "owner()": "8da5cb5b",
        "renounceOwnership()": "715018a6",
        "setRouter(address)": "c0d78655",
        "transferOwnership(address)": "f2fde38b"
    },
    "id": 34
}